{
  "_format": "hh-sol-artifact-1",
  "contractName": "ThePurge",
  "sourceName": "contracts/BattleSlayers.sol",
  "abi": [
    {
      "inputs": [
        {
          "internalType": "string",
          "name": "_tokenName",
          "type": "string"
        },
        {
          "internalType": "string",
          "name": "_tokenSymbol",
          "type": "string"
        },
        {
          "internalType": "uint256",
          "name": "_maxSupply",
          "type": "uint256"
        },
        {
          "internalType": "uint256",
          "name": "_maxMintAmountPerTx",
          "type": "uint256"
        },
        {
          "internalType": "uint256",
          "name": "_maxMintAmountPerW",
          "type": "uint256"
        },
        {
          "internalType": "string",
          "name": "_hiddenMetadataUri",
          "type": "string"
        }
      ],
      "stateMutability": "nonpayable",
      "type": "constructor"
    },
    {
      "inputs": [],
      "name": "ApprovalCallerNotOwnerNorApproved",
      "type": "error"
    },
    {
      "inputs": [],
      "name": "ApprovalQueryForNonexistentToken",
      "type": "error"
    },
    {
      "inputs": [],
      "name": "ApproveToCaller",
      "type": "error"
    },
    {
      "inputs": [],
      "name": "BalanceQueryForZeroAddress",
      "type": "error"
    },
    {
      "inputs": [],
      "name": "MintERC2309QuantityExceedsLimit",
      "type": "error"
    },
    {
      "inputs": [],
      "name": "MintToZeroAddress",
      "type": "error"
    },
    {
      "inputs": [],
      "name": "MintZeroQuantity",
      "type": "error"
    },
    {
      "inputs": [],
      "name": "OwnerQueryForNonexistentToken",
      "type": "error"
    },
    {
      "inputs": [],
      "name": "OwnershipNotInitializedForExtraData",
      "type": "error"
    },
    {
      "inputs": [],
      "name": "TransferCallerNotOwnerNorApproved",
      "type": "error"
    },
    {
      "inputs": [],
      "name": "TransferFromIncorrectOwner",
      "type": "error"
    },
    {
      "inputs": [],
      "name": "TransferToNonERC721ReceiverImplementer",
      "type": "error"
    },
    {
      "inputs": [],
      "name": "TransferToZeroAddress",
      "type": "error"
    },
    {
      "inputs": [],
      "name": "URIQueryForNonexistentToken",
      "type": "error"
    },
    {
      "anonymous": false,
      "inputs": [
        {
          "indexed": true,
          "internalType": "address",
          "name": "owner",
          "type": "address"
        },
        {
          "indexed": true,
          "internalType": "address",
          "name": "approved",
          "type": "address"
        },
        {
          "indexed": true,
          "internalType": "uint256",
          "name": "tokenId",
          "type": "uint256"
        }
      ],
      "name": "Approval",
      "type": "event"
    },
    {
      "anonymous": false,
      "inputs": [
        {
          "indexed": true,
          "internalType": "address",
          "name": "owner",
          "type": "address"
        },
        {
          "indexed": true,
          "internalType": "address",
          "name": "operator",
          "type": "address"
        },
        {
          "indexed": false,
          "internalType": "bool",
          "name": "approved",
          "type": "bool"
        }
      ],
      "name": "ApprovalForAll",
      "type": "event"
    },
    {
      "anonymous": false,
      "inputs": [
        {
          "indexed": true,
          "internalType": "uint256",
          "name": "fromTokenId",
          "type": "uint256"
        },
        {
          "indexed": false,
          "internalType": "uint256",
          "name": "toTokenId",
          "type": "uint256"
        },
        {
          "indexed": true,
          "internalType": "address",
          "name": "from",
          "type": "address"
        },
        {
          "indexed": true,
          "internalType": "address",
          "name": "to",
          "type": "address"
        }
      ],
      "name": "ConsecutiveTransfer",
      "type": "event"
    },
    {
      "anonymous": false,
      "inputs": [
        {
          "indexed": true,
          "internalType": "address",
          "name": "previousOwner",
          "type": "address"
        },
        {
          "indexed": true,
          "internalType": "address",
          "name": "newOwner",
          "type": "address"
        }
      ],
      "name": "OwnershipTransferred",
      "type": "event"
    },
    {
      "anonymous": false,
      "inputs": [
        {
          "indexed": true,
          "internalType": "address",
          "name": "from",
          "type": "address"
        },
        {
          "indexed": true,
          "internalType": "address",
          "name": "to",
          "type": "address"
        },
        {
          "indexed": true,
          "internalType": "uint256",
          "name": "tokenId",
          "type": "uint256"
        }
      ],
      "name": "Transfer",
      "type": "event"
    },
    {
      "inputs": [
        {
          "internalType": "address",
          "name": "",
          "type": "address"
        }
      ],
      "name": "WalletMint",
      "outputs": [
        {
          "internalType": "uint256",
          "name": "",
          "type": "uint256"
        }
      ],
      "stateMutability": "view",
      "type": "function"
    },
    {
      "inputs": [
        {
          "internalType": "address",
          "name": "to",
          "type": "address"
        },
        {
          "internalType": "uint256",
          "name": "tokenId",
          "type": "uint256"
        }
      ],
      "name": "approve",
      "outputs": [],
      "stateMutability": "nonpayable",
      "type": "function"
    },
    {
      "inputs": [
        {
          "internalType": "address",
          "name": "owner",
          "type": "address"
        }
      ],
      "name": "balanceOf",
      "outputs": [
        {
          "internalType": "uint256",
          "name": "",
          "type": "uint256"
        }
      ],
      "stateMutability": "view",
      "type": "function"
    },
    {
      "inputs": [],
      "name": "cost",
      "outputs": [
        {
          "internalType": "uint256",
          "name": "",
          "type": "uint256"
        }
      ],
      "stateMutability": "view",
      "type": "function"
    },
    {
      "inputs": [],
      "name": "freeMint",
      "outputs": [
        {
          "internalType": "uint256",
          "name": "",
          "type": "uint256"
        }
      ],
      "stateMutability": "view",
      "type": "function"
    },
    {
      "inputs": [],
      "name": "freeSupply",
      "outputs": [
        {
          "internalType": "uint256",
          "name": "",
          "type": "uint256"
        }
      ],
      "stateMutability": "view",
      "type": "function"
    },
    {
      "inputs": [
        {
          "internalType": "uint256",
          "name": "tokenId",
          "type": "uint256"
        }
      ],
      "name": "getApproved",
      "outputs": [
        {
          "internalType": "address",
          "name": "",
          "type": "address"
        }
      ],
      "stateMutability": "view",
      "type": "function"
    },
    {
      "inputs": [],
      "name": "hiddenMetadataUri",
      "outputs": [
        {
          "internalType": "string",
          "name": "",
          "type": "string"
        }
      ],
      "stateMutability": "view",
      "type": "function"
    },
    {
      "inputs": [
        {
          "internalType": "address",
          "name": "owner",
          "type": "address"
        },
        {
          "internalType": "address",
          "name": "operator",
          "type": "address"
        }
      ],
      "name": "isApprovedForAll",
      "outputs": [
        {
          "internalType": "bool",
          "name": "",
          "type": "bool"
        }
      ],
      "stateMutability": "view",
      "type": "function"
    },
    {
      "inputs": [],
      "name": "maxMintAmountPerTx",
      "outputs": [
        {
          "internalType": "uint256",
          "name": "",
          "type": "uint256"
        }
      ],
      "stateMutability": "view",
      "type": "function"
    },
    {
      "inputs": [],
      "name": "maxMintAmountPerW",
      "outputs": [
        {
          "internalType": "uint256",
          "name": "",
          "type": "uint256"
        }
      ],
      "stateMutability": "view",
      "type": "function"
    },
    {
      "inputs": [],
      "name": "maxSupply",
      "outputs": [
        {
          "internalType": "uint256",
          "name": "",
          "type": "uint256"
        }
      ],
      "stateMutability": "view",
      "type": "function"
    },
    {
      "inputs": [],
      "name": "merkleRootog",
      "outputs": [
        {
          "internalType": "bytes32",
          "name": "",
          "type": "bytes32"
        }
      ],
      "stateMutability": "view",
      "type": "function"
    },
    {
      "inputs": [],
      "name": "merkleRootwl",
      "outputs": [
        {
          "internalType": "bytes32",
          "name": "",
          "type": "bytes32"
        }
      ],
      "stateMutability": "view",
      "type": "function"
    },
    {
      "inputs": [
        {
          "internalType": "address",
          "name": "",
          "type": "address"
        }
      ],
      "name": "mintCounter",
      "outputs": [
        {
          "internalType": "uint256",
          "name": "",
          "type": "uint256"
        }
      ],
      "stateMutability": "view",
      "type": "function"
    },
    {
      "inputs": [
        {
          "internalType": "uint256",
          "name": "_mintAmount",
          "type": "uint256"
        },
        {
          "internalType": "address",
          "name": "_receiver",
          "type": "address"
        }
      ],
      "name": "mintForAddress",
      "outputs": [],
      "stateMutability": "nonpayable",
      "type": "function"
    },
    {
      "inputs": [],
      "name": "name",
      "outputs": [
        {
          "internalType": "string",
          "name": "",
          "type": "string"
        }
      ],
      "stateMutability": "view",
      "type": "function"
    },
    {
      "inputs": [],
      "name": "owner",
      "outputs": [
        {
          "internalType": "address",
          "name": "",
          "type": "address"
        }
      ],
      "stateMutability": "view",
      "type": "function"
    },
    {
      "inputs": [
        {
          "internalType": "uint256",
          "name": "tokenId",
          "type": "uint256"
        }
      ],
      "name": "ownerOf",
      "outputs": [
        {
          "internalType": "address",
          "name": "",
          "type": "address"
        }
      ],
      "stateMutability": "view",
      "type": "function"
    },
    {
      "inputs": [],
      "name": "paused",
      "outputs": [
        {
          "internalType": "bool",
          "name": "",
          "type": "bool"
        }
      ],
      "stateMutability": "view",
      "type": "function"
    },
    {
      "inputs": [
        {
          "internalType": "address",
          "name": "",
          "type": "address"
        }
      ],
      "name": "presaleClaimed",
      "outputs": [
        {
          "internalType": "bool",
          "name": "",
          "type": "bool"
        }
      ],
      "stateMutability": "view",
      "type": "function"
    },
    {
      "inputs": [],
      "name": "presaleM",
      "outputs": [
        {
          "internalType": "bool",
          "name": "",
          "type": "bool"
        }
      ],
      "stateMutability": "view",
      "type": "function"
    },
    {
      "inputs": [
        {
          "internalType": "address",
          "name": "account",
          "type": "address"
        },
        {
          "internalType": "uint256",
          "name": "_mintAmount",
          "type": "uint256"
        },
        {
          "internalType": "bytes32[]",
          "name": "_proofwl",
          "type": "bytes32[]"
        }
      ],
      "name": "presaleMint",
      "outputs": [],
      "stateMutability": "payable",
      "type": "function"
    },
    {
      "inputs": [],
      "name": "publicM",
      "outputs": [
        {
          "internalType": "bool",
          "name": "",
          "type": "bool"
        }
      ],
      "stateMutability": "view",
      "type": "function"
    },
    {
      "inputs": [
        {
          "internalType": "uint256",
          "name": "_mintAmount",
          "type": "uint256"
        }
      ],
      "name": "publicSaleMint",
      "outputs": [],
      "stateMutability": "payable",
      "type": "function"
    },
    {
      "inputs": [],
      "name": "renounceOwnership",
      "outputs": [],
      "stateMutability": "nonpayable",
      "type": "function"
    },
    {
      "inputs": [],
      "name": "revealed",
      "outputs": [
        {
          "internalType": "bool",
          "name": "",
          "type": "bool"
        }
      ],
      "stateMutability": "view",
      "type": "function"
    },
    {
      "inputs": [
        {
          "internalType": "address",
          "name": "from",
          "type": "address"
        },
        {
          "internalType": "address",
          "name": "to",
          "type": "address"
        },
        {
          "internalType": "uint256",
          "name": "tokenId",
          "type": "uint256"
        }
      ],
      "name": "safeTransferFrom",
      "outputs": [],
      "stateMutability": "nonpayable",
      "type": "function"
    },
    {
      "inputs": [
        {
          "internalType": "address",
          "name": "from",
          "type": "address"
        },
        {
          "internalType": "address",
          "name": "to",
          "type": "address"
        },
        {
          "internalType": "uint256",
          "name": "tokenId",
          "type": "uint256"
        },
        {
          "internalType": "bytes",
          "name": "_data",
          "type": "bytes"
        }
      ],
      "name": "safeTransferFrom",
      "outputs": [],
      "stateMutability": "nonpayable",
      "type": "function"
    },
    {
      "inputs": [
        {
          "internalType": "address",
          "name": "operator",
          "type": "address"
        },
        {
          "internalType": "bool",
          "name": "approved",
          "type": "bool"
        }
      ],
      "name": "setApprovalForAll",
      "outputs": [],
      "stateMutability": "nonpayable",
      "type": "function"
    },
    {
      "inputs": [
        {
          "internalType": "uint256",
          "name": "_cost",
          "type": "uint256"
        }
      ],
      "name": "setCost",
      "outputs": [],
      "stateMutability": "nonpayable",
      "type": "function"
    },
    {
      "inputs": [
        {
          "internalType": "string",
          "name": "_hiddenMetadataUri",
          "type": "string"
        }
      ],
      "name": "setHiddenMetadataUri",
      "outputs": [],
      "stateMutability": "nonpayable",
      "type": "function"
    },
    {
      "inputs": [
        {
          "internalType": "uint256",
          "name": "_maxMintAmountPerTx",
          "type": "uint256"
        }
      ],
      "name": "setMaxMintAmountPerTx",
      "outputs": [],
      "stateMutability": "nonpayable",
      "type": "function"
    },
    {
      "inputs": [
        {
          "internalType": "uint256",
          "name": "_maxMintAmountPerW",
          "type": "uint256"
        }
      ],
      "name": "setMaxMintAmountPerW",
      "outputs": [],
      "stateMutability": "nonpayable",
      "type": "function"
    },
    {
      "inputs": [
        {
          "internalType": "bytes32",
          "name": "_merkleRootwl",
          "type": "bytes32"
        }
      ],
      "name": "setMerkleRoot",
      "outputs": [],
      "stateMutability": "nonpayable",
      "type": "function"
    },
    {
      "inputs": [
        {
          "internalType": "bool",
          "name": "_state",
          "type": "bool"
        }
      ],
      "name": "setRevealed",
      "outputs": [],
      "stateMutability": "nonpayable",
      "type": "function"
    },
    {
      "inputs": [
        {
          "internalType": "string",
          "name": "_uriPrefix",
          "type": "string"
        }
      ],
      "name": "setUriPrefix",
      "outputs": [],
      "stateMutability": "nonpayable",
      "type": "function"
    },
    {
      "inputs": [
        {
          "internalType": "string",
          "name": "_uriSuffix",
          "type": "string"
        }
      ],
      "name": "setUriSuffix",
      "outputs": [],
      "stateMutability": "nonpayable",
      "type": "function"
    },
    {
      "inputs": [
        {
          "internalType": "bytes4",
          "name": "interfaceId",
          "type": "bytes4"
        }
      ],
      "name": "supportsInterface",
      "outputs": [
        {
          "internalType": "bool",
          "name": "",
          "type": "bool"
        }
      ],
      "stateMutability": "view",
      "type": "function"
    },
    {
      "inputs": [],
      "name": "symbol",
      "outputs": [
        {
          "internalType": "string",
          "name": "",
          "type": "string"
        }
      ],
      "stateMutability": "view",
      "type": "function"
    },
    {
      "inputs": [],
      "name": "togglePause",
      "outputs": [],
      "stateMutability": "nonpayable",
      "type": "function"
    },
    {
      "inputs": [],
      "name": "togglePresale",
      "outputs": [],
      "stateMutability": "nonpayable",
      "type": "function"
    },
    {
      "inputs": [],
      "name": "togglePublicSale",
      "outputs": [],
      "stateMutability": "nonpayable",
      "type": "function"
    },
    {
      "inputs": [
        {
          "internalType": "uint256",
          "name": "_tokenId",
          "type": "uint256"
        }
      ],
      "name": "tokenURI",
      "outputs": [
        {
          "internalType": "string",
          "name": "",
          "type": "string"
        }
      ],
      "stateMutability": "view",
      "type": "function"
    },
    {
      "inputs": [],
      "name": "totalSupply",
      "outputs": [
        {
          "internalType": "uint256",
          "name": "",
          "type": "uint256"
        }
      ],
      "stateMutability": "view",
      "type": "function"
    },
    {
      "inputs": [
        {
          "internalType": "address",
          "name": "from",
          "type": "address"
        },
        {
          "internalType": "address",
          "name": "to",
          "type": "address"
        },
        {
          "internalType": "uint256",
          "name": "tokenId",
          "type": "uint256"
        }
      ],
      "name": "transferFrom",
      "outputs": [],
      "stateMutability": "nonpayable",
      "type": "function"
    },
    {
      "inputs": [
        {
          "internalType": "address",
          "name": "newOwner",
          "type": "address"
        }
      ],
      "name": "transferOwnership",
      "outputs": [],
      "stateMutability": "nonpayable",
      "type": "function"
    },
    {
      "inputs": [],
      "name": "uriPrefix",
      "outputs": [
        {
          "internalType": "string",
          "name": "",
          "type": "string"
        }
      ],
      "stateMutability": "view",
      "type": "function"
    },
    {
      "inputs": [],
      "name": "uriSuffix",
      "outputs": [
        {
          "internalType": "string",
          "name": "",
          "type": "string"
        }
      ],
      "stateMutability": "view",
      "type": "function"
    },
    {
      "inputs": [],
      "name": "withdraw",
      "outputs": [],
      "stateMutability": "nonpayable",
      "type": "function"
    }
  ],
  "bytecode": "0x60a06040819052600060808190526200001b91600f9162000275565b5060408051808201909152600580825264173539b7b760d91b60209092019182526200004a9160109162000275565b5066232bff5f46c00060125560016013556106146015556018805463ffffffff19166101001790553480156200007f57600080fd5b5060405162002cde38038062002cde833981016040819052620000a291620003e8565b855186908690620000bb90600290602085019062000275565b508051620000d190600390602084019062000275565b5050600160005550620000e4336200011b565b60016009556014849055620000f9836200016d565b6200010482620001c1565b6200010f8162000211565b505050505050620004d2565b600880546001600160a01b038381166001600160a01b0319831681179093556040519116919082907f8be0079c531659141344cd1fd0a4f28419497f9722a3daafe3b4186f6b6457e090600090a35050565b6008546001600160a01b03163314620001bc5760405162461bcd60e51b8152602060048201819052602482015260008051602062002cbe83398151915260448201526064015b60405180910390fd5b601655565b6008546001600160a01b031633146200020c5760405162461bcd60e51b8152602060048201819052602482015260008051602062002cbe8339815191526044820152606401620001b3565b601755565b6008546001600160a01b031633146200025c5760405162461bcd60e51b8152602060048201819052602482015260008051602062002cbe8339815191526044820152606401620001b3565b80516200027190601190602084019062000275565b5050565b828054620002839062000495565b90600052602060002090601f016020900481019282620002a75760008555620002f2565b82601f10620002c257805160ff1916838001178555620002f2565b82800160010185558215620002f2579182015b82811115620002f2578251825591602001919060010190620002d5565b506200030092915062000304565b5090565b5b8082111562000300576000815560010162000305565b634e487b7160e01b600052604160045260246000fd5b600082601f8301126200034357600080fd5b81516001600160401b03808211156200036057620003606200031b565b604051601f8301601f19908116603f011681019082821181831017156200038b576200038b6200031b565b81604052838152602092508683858801011115620003a857600080fd5b600091505b83821015620003cc5785820183015181830184015290820190620003ad565b83821115620003de5760008385830101525b9695505050505050565b60008060008060008060c087890312156200040257600080fd5b86516001600160401b03808211156200041a57600080fd5b620004288a838b0162000331565b975060208901519150808211156200043f57600080fd5b6200044d8a838b0162000331565b965060408901519550606089015194506080890151935060a08901519150808211156200047957600080fd5b506200048889828a0162000331565b9150509295509295509295565b600181811c90821680620004aa57607f821691505b60208210811415620004cc57634e487b7160e01b600052602260045260246000fd5b50919050565b6127dc80620004e26000396000f3fe6080604052600436106102c95760003560e01c8063715018a611610175578063b3ab66b0116100dc578063e222c7f911610095578063efbd73f41161006f578063efbd73f41461083a578063efd9b90c1461085a578063f2fde38b14610870578063f9765bc11461089057600080fd5b8063e222c7f9146107af578063e645f708146107c4578063e985e9c5146107f157600080fd5b8063b3ab66b014610711578063b88d4fde14610724578063c4ae316814610744578063c87b56dd14610759578063d5abeb0114610779578063e0a808531461078f57600080fd5b8063954dc3e31161012e578063954dc3e31461067457806395d89b4114610687578063a22cb4651461069c578063a45063c0146106bc578063a45ba8e7146106dc578063b071401b146106f157600080fd5b8063715018a6146105d55780637cb64759146105ea5780637ec4a6591461060a578063867cb30e1461062a5780638da5cb5b1461064057806394354fd01461065e57600080fd5b806326b092df1161023457806351830227116101ed5780635c975abb116101c75780635c975abb1461056657806362b99ad4146105805780636352211e1461059557806370a08231146105b557600080fd5b8063518302271461051a5780635503a0e81461053b5780635b70ea9f1461055057600080fd5b806326b092df1461047057806334393743146104905780633ccfd60b146104a557806342842e0e146104ba57806344a0d68a146104da5780634fdd43cb146104fa57600080fd5b80631798d58b116102865780631798d58b146103c357806318160ddd146103e25780631cdce9fe146103f75780631d084ef21461042457806323b872dd1461043a57806324a6ab0c1461045a57600080fd5b806301ffc9a7146102ce57806306fdde0314610303578063081812fc14610325578063095ea7b31461035d57806313faede61461037f57806316ba10e0146103a3575b600080fd5b3480156102da57600080fd5b506102ee6102e9366004612181565b6108c0565b60405190151581526020015b60405180910390f35b34801561030f57600080fd5b50610318610912565b6040516102fa91906121f6565b34801561033157600080fd5b50610345610340366004612209565b6109a4565b6040516001600160a01b0390911681526020016102fa565b34801561036957600080fd5b5061037d61037836600461223e565b6109e8565b005b34801561038b57600080fd5b5061039560125481565b6040519081526020016102fa565b3480156103af57600080fd5b5061037d6103be3660046122f4565b610a88565b3480156103cf57600080fd5b506018546102ee90610100900460ff1681565b3480156103ee57600080fd5b50610395610ad2565b34801561040357600080fd5b5061039561041236600461233d565b600d6020526000908152604090205481565b34801561043057600080fd5b50610395600b5481565b34801561044657600080fd5b5061037d610455366004612358565b610ae0565b34801561046657600080fd5b5061039560155481565b34801561047c57600080fd5b5061037d61048b366004612209565b610c71565b34801561049c57600080fd5b5061037d610ca0565b3480156104b157600080fd5b5061037d610ce7565b3480156104c657600080fd5b5061037d6104d5366004612358565b610de2565b3480156104e657600080fd5b5061037d6104f5366004612209565b610e02565b34801561050657600080fd5b5061037d6105153660046122f4565b610e31565b34801561052657600080fd5b506018546102ee906301000000900460ff1681565b34801561054757600080fd5b50610318610e6e565b34801561055c57600080fd5b5061039560135481565b34801561057257600080fd5b506018546102ee9060ff1681565b34801561058c57600080fd5b50610318610efc565b3480156105a157600080fd5b506103456105b0366004612209565b610f09565b3480156105c157600080fd5b506103956105d036600461233d565b610f14565b3480156105e157600080fd5b5061037d610f63565b3480156105f657600080fd5b5061037d610605366004612209565b610f99565b34801561061657600080fd5b5061037d6106253660046122f4565b610fc8565b34801561063657600080fd5b5061039560175481565b34801561064c57600080fd5b506008546001600160a01b0316610345565b34801561066a57600080fd5b5061039560165481565b61037d610682366004612394565b611005565b34801561069357600080fd5b506103186114a9565b3480156106a857600080fd5b5061037d6106b736600461242e565b6114b8565b3480156106c857600080fd5b506018546102ee9062010000900460ff1681565b3480156106e857600080fd5b5061031861154e565b3480156106fd57600080fd5b5061037d61070c366004612209565b61155b565b61037d61071f366004612209565b61158a565b34801561073057600080fd5b5061037d61073f366004612461565b611823565b34801561075057600080fd5b5061037d61186d565b34801561076557600080fd5b50610318610774366004612209565b6118ab565b34801561078557600080fd5b5061039560145481565b34801561079b57600080fd5b5061037d6107aa3660046124dd565b611a1c565b3480156107bb57600080fd5b5061037d611a64565b3480156107d057600080fd5b506103956107df36600461233d565b600e6020526000908152604090205481565b3480156107fd57600080fd5b506102ee61080c3660046124f8565b6001600160a01b03918216600090815260076020908152604080832093909416825291909152205460ff1690565b34801561084657600080fd5b5061037d610855366004612522565b611aad565b34801561086657600080fd5b50610395600a5481565b34801561087c57600080fd5b5061037d61088b36600461233d565b611b3a565b34801561089c57600080fd5b506102ee6108ab36600461233d565b600c6020526000908152604090205460ff1681565b60006301ffc9a760e01b6001600160e01b0319831614806108f157506380ac58cd60e01b6001600160e01b03198316145b8061090c5750635b5e139f60e01b6001600160e01b03198316145b92915050565b60606002805461092190612545565b80601f016020809104026020016040519081016040528092919081815260200182805461094d90612545565b801561099a5780601f1061096f5761010080835404028352916020019161099a565b820191906000526020600020905b81548152906001019060200180831161097d57829003601f168201915b5050505050905090565b60006109af82611bd5565b6109cc576040516333d1c03960e21b815260040160405180910390fd5b506000908152600660205260409020546001600160a01b031690565b60006109f382610f09565b9050336001600160a01b03821614610a2c57610a0f813361080c565b610a2c576040516367d9dca160e11b815260040160405180910390fd5b60008281526006602052604080822080546001600160a01b0319166001600160a01b0387811691821790925591518593918516917f8c5be1e5ebec7d5bd14f71427d1e84f3dd0314c0f7b2291e5b200ac8c7c3b92591a4505050565b6008546001600160a01b03163314610abb5760405162461bcd60e51b8152600401610ab290612580565b60405180910390fd5b8051610ace9060109060208401906120d2565b5050565b600154600054036000190190565b6000610aeb82611c0a565b9050836001600160a01b0316816001600160a01b031614610b1e5760405162a1148160e81b815260040160405180910390fd5b60008281526006602052604090208054338082146001600160a01b03881690911417610b6b57610b4e863361080c565b610b6b57604051632ce44b5f60e11b815260040160405180910390fd5b6001600160a01b038516610b9257604051633a954ecd60e21b815260040160405180910390fd5b8015610b9d57600082555b6001600160a01b038681166000908152600560205260408082208054600019019055918716808252919020805460010190554260a01b17600160e11b17600085815260046020526040902055600160e11b8316610c285760018401600081815260046020526040902054610c26576000548114610c265760008181526004602052604090208490555b505b83856001600160a01b0316876001600160a01b03167fddf252ad1be2c89b69c2b068fc378daa952ba7f163c4a11628f55a4df523b3ef60405160405180910390a4505050505050565b6008546001600160a01b03163314610c9b5760405162461bcd60e51b8152600401610ab290612580565b601755565b6008546001600160a01b03163314610cca5760405162461bcd60e51b8152600401610ab290612580565b6018805461ff001981166101009182900460ff1615909102179055565b6008546001600160a01b03163314610d115760405162461bcd60e51b8152600401610ab290612580565b60026009541415610d645760405162461bcd60e51b815260206004820152601f60248201527f5265656e7472616e637947756172643a207265656e7472616e742063616c6c006044820152606401610ab2565b60026009556000610d7d6008546001600160a01b031690565b6001600160a01b03164760405160006040518083038185875af1925050503d8060008114610dc7576040519150601f19603f3d011682016040523d82523d6000602084013e610dcc565b606091505b5050905080610dda57600080fd5b506001600955565b610dfd83838360405180602001604052806000815250611823565b505050565b6008546001600160a01b03163314610e2c5760405162461bcd60e51b8152600401610ab290612580565b601255565b6008546001600160a01b03163314610e5b5760405162461bcd60e51b8152600401610ab290612580565b8051610ace9060119060208401906120d2565b60108054610e7b90612545565b80601f0160208091040260200160405190810160405280929190818152602001828054610ea790612545565b8015610ef45780601f10610ec957610100808354040283529160200191610ef4565b820191906000526020600020905b815481529060010190602001808311610ed757829003601f168201915b505050505081565b600f8054610e7b90612545565b600061090c82611c0a565b60006001600160a01b038216610f3d576040516323d3ad8160e21b815260040160405180910390fd5b506001600160a01b031660009081526005602052604090205467ffffffffffffffff1690565b6008546001600160a01b03163314610f8d5760405162461bcd60e51b8152600401610ab290612580565b610f976000611c73565b565b6008546001600160a01b03163314610fc35760405162461bcd60e51b8152600401610ab290612580565b600a55565b6008546001600160a01b03163314610ff25760405162461bcd60e51b8152600401610ab290612580565b8051610ace90600f9060208401906120d2565b8260008111801561101857506016548111155b61105b5760405162461bcd60e51b8152602060048201526014602482015273496e76616c6964206d696e7420616d6f756e742160601b6044820152606401610ab2565b601754336000908152600d60205260409020546110799083906125cb565b11156110c15760405162461bcd60e51b815260206004820152601760248201527665786365656473206d617820706572206164647265737360481b6044820152606401610ab2565b601454816110cd610ad2565b6110d791906125cb565b111561111c5760405162461bcd60e51b81526020600482015260146024820152734d617820737570706c792065786365656465642160601b6044820152606401610ab2565b336000908152600d60205260409020546111379082906125cb565b600d6000336001600160a01b03166001600160a01b031681526020019081526020016000208190555082826111d782828080602002602001604051908101604052809392919081815260200183836020028082843760009201919091525050600a546040516bffffffffffffffffffffffff193360601b166020820152909250603401905060405160208183030381529060405280519060200120611cc5565b151560011461121d5760405162461bcd60e51b81526020600482015260126024820152712737ba1030b63637bbb2b21037b934b3b4b760711b6044820152606401610ab2565b3332146112615760405162461bcd60e51b81526020600482015260126024820152712737ba1030b63637bbb2b21037b934b3b4b760711b6044820152606401610ab2565b601854610100900460ff166112b85760405162461bcd60e51b815260206004820181905260248201527f5468652070726573616c652073616c65206973206e6f7420656e61626c6564216044820152606401610ab2565b336000908152600c602052604090205460ff16156113185760405162461bcd60e51b815260206004820152601860248201527f4164647265737320616c726561647920636c61696d65642100000000000000006044820152606401610ab2565b336001600160a01b0388161461135e5760405162461bcd60e51b815260206004820152600b60248201526a139bdd08185b1b1bddd95960aa1b6044820152606401610ab2565b601354336000908152600e6020526040902054101561141d576013548610156113875760135495505b60125460135461139790886125e3565b6113a191906125fa565b3410156113e85760405162461bcd60e51b8152602060048201526015602482015274139bdd1a58d94e90db185a5b48119c995948139195605a1b6044820152606401610ab2565b336000908152600e6020526040812080548892906114079084906125cb565b909155506114189050335b87611cdb565b6114a0565b60125461142a90876125fa565b3410156114725760405162461bcd60e51b815260206004820152601660248201527509cdee8d2c6ca748ceadcc840dcdee840cadcdeeaced60531b6044820152606401610ab2565b336000908152600e6020526040812080548892906114919084906125cb565b909155506114a0905033611412565b50505050505050565b60606003805461092190612545565b6001600160a01b0382163314156114e25760405163b06307db60e01b815260040160405180910390fd5b3360008181526007602090815260408083206001600160a01b03871680855290835292819020805460ff191686151590811790915590519081529192917f17307eab39ab6107e8899845ad3d59bd9653f200f220920489ca2b5937696c31910160405180910390a35050565b60118054610e7b90612545565b6008546001600160a01b031633146115855760405162461bcd60e51b8152600401610ab290612580565b601655565b8060008111801561159d57506016548111155b6115e05760405162461bcd60e51b8152602060048201526014602482015273496e76616c6964206d696e7420616d6f756e742160601b6044820152606401610ab2565b601754336000908152600d60205260409020546115fe9083906125cb565b11156116465760405162461bcd60e51b815260206004820152601760248201527665786365656473206d617820706572206164647265737360481b6044820152606401610ab2565b60145481611652610ad2565b61165c91906125cb565b11156116a15760405162461bcd60e51b81526020600482015260146024820152734d617820737570706c792065786365656465642160601b6044820152606401610ab2565b336000908152600d60205260409020546116bc9082906125cb565b336000908152600d602052604090205560125482906116dc9082906125fa565b3410156117215760405162461bcd60e51b8152602060048201526013602482015272496e73756666696369656e742066756e64732160681b6044820152606401610ab2565b60185460ff16156117745760405162461bcd60e51b815260206004820152601760248201527f54686520636f6e747261637420697320706175736564210000000000000000006044820152606401610ab2565b60185462010000900460ff166117c05760405162461bcd60e51b8152602060048201526011602482015270283ab13634b1a9b0b6329034b99027a32360791b6044820152606401610ab2565b601454836117cc610ad2565b6117d691906125cb565b11156118195760405162461bcd60e51b815260206004820152601260248201527172656163686564204d617820537570706c7960701b6044820152606401610ab2565b610dfd3384611cdb565b61182e848484610ae0565b6001600160a01b0383163b156118675761184a84848484611cf5565b611867576040516368d2bf6b60e11b815260040160405180910390fd5b50505050565b6008546001600160a01b031633146118975760405162461bcd60e51b8152600401610ab290612580565b6018805460ff19811660ff90911615179055565b60606118b682611bd5565b61191a5760405162461bcd60e51b815260206004820152602f60248201527f4552433732314d657461646174613a2055524920717565727920666f72206e6f60448201526e3732bc34b9ba32b73a103a37b5b2b760891b6064820152608401610ab2565b6018546301000000900460ff166119bd576011805461193890612545565b80601f016020809104026020016040519081016040528092919081815260200182805461196490612545565b80156119b15780601f10611986576101008083540402835291602001916119b1565b820191906000526020600020905b81548152906001019060200180831161199457829003601f168201915b50505050509050919050565b60006119c7611ded565b905060008151116119e75760405180602001604052806000815250611a15565b806119f184611dfc565b6010604051602001611a0593929190612619565b6040516020818303038152906040525b9392505050565b6008546001600160a01b03163314611a465760405162461bcd60e51b8152600401610ab290612580565b6018805491151563010000000263ff00000019909216919091179055565b6008546001600160a01b03163314611a8e5760405162461bcd60e51b8152600401610ab290612580565b6018805462ff0000198116620100009182900460ff1615909102179055565b6008546001600160a01b03163314611ad75760405162461bcd60e51b8152600401610ab290612580565b60145482611ae3610ad2565b611aed91906125cb565b1115611b305760405162461bcd60e51b815260206004820152601260248201527172656163686564204d617820537570706c7960701b6044820152606401610ab2565b610ace8183611cdb565b6008546001600160a01b03163314611b645760405162461bcd60e51b8152600401610ab290612580565b6001600160a01b038116611bc95760405162461bcd60e51b815260206004820152602660248201527f4f776e61626c653a206e6577206f776e657220697320746865207a65726f206160448201526564647265737360d01b6064820152608401610ab2565b611bd281611c73565b50565b600081600111158015611be9575060005482105b801561090c575050600090815260046020526040902054600160e01b161590565b60008180600111611c5a57600054811015611c5a57600081815260046020526040902054600160e01b8116611c58575b80611a15575060001901600081815260046020526040902054611c3a565b505b604051636f96cda160e11b815260040160405180910390fd5b600880546001600160a01b038381166001600160a01b0319831681179093556040519116919082907f8be0079c531659141344cd1fd0a4f28419497f9722a3daafe3b4186f6b6457e090600090a35050565b600082611cd28584611efa565b14949350505050565b610ace828260405180602001604052806000815250611f6e565b604051630a85bd0160e11b81526000906001600160a01b0385169063150b7a0290611d2a9033908990889088906004016126dd565b602060405180830381600087803b158015611d4457600080fd5b505af1925050508015611d74575060408051601f3d908101601f19168201909252611d719181019061271a565b60015b611dcf573d808015611da2576040519150601f19603f3d011682016040523d82523d6000602084013e611da7565b606091505b508051611dc7576040516368d2bf6b60e11b815260040160405180910390fd5b805181602001fd5b6001600160e01b031916630a85bd0160e11b1490505b949350505050565b6060600f805461092190612545565b606081611e205750506040805180820190915260018152600360fc1b602082015290565b8160005b8115611e4a5780611e3481612737565b9150611e439050600a83612768565b9150611e24565b60008167ffffffffffffffff811115611e6557611e65612268565b6040519080825280601f01601f191660200182016040528015611e8f576020820181803683370190505b5090505b8415611de557611ea46001836125e3565b9150611eb1600a8661277c565b611ebc9060306125cb565b60f81b818381518110611ed157611ed1612790565b60200101906001600160f81b031916908160001a905350611ef3600a86612768565b9450611e93565b600081815b8451811015611f66576000858281518110611f1c57611f1c612790565b60200260200101519050808311611f425760008381526020829052604090209250611f53565b600081815260208490526040902092505b5080611f5e81612737565b915050611eff565b509392505050565b611f788383611fdb565b6001600160a01b0383163b15610dfd576000548281035b611fa26000868380600101945086611cf5565b611fbf576040516368d2bf6b60e11b815260040160405180910390fd5b818110611f8f578160005414611fd457600080fd5b5050505050565b60005481611ffc5760405163b562e8dd60e01b815260040160405180910390fd5b6001600160a01b03831660008181526005602090815260408083208054680100000000000000018802019055848352600490915281206001851460e11b4260a01b178317905582840190839083907fddf252ad1be2c89b69c2b068fc378daa952ba7f163c4a11628f55a4df523b3ef8180a4600183015b8181146120ab57808360007fddf252ad1be2c89b69c2b068fc378daa952ba7f163c4a11628f55a4df523b3ef600080a4600101612073565b50816120c957604051622e076360e81b815260040160405180910390fd5b60005550505050565b8280546120de90612545565b90600052602060002090601f0160209004810192826121005760008555612146565b82601f1061211957805160ff1916838001178555612146565b82800160010185558215612146579182015b8281111561214657825182559160200191906001019061212b565b50612152929150612156565b5090565b5b808211156121525760008155600101612157565b6001600160e01b031981168114611bd257600080fd5b60006020828403121561219357600080fd5b8135611a158161216b565b60005b838110156121b95781810151838201526020016121a1565b838111156118675750506000910152565b600081518084526121e281602086016020860161219e565b601f01601f19169290920160200192915050565b602081526000611a1560208301846121ca565b60006020828403121561221b57600080fd5b5035919050565b80356001600160a01b038116811461223957600080fd5b919050565b6000806040838503121561225157600080fd5b61225a83612222565b946020939093013593505050565b634e487b7160e01b600052604160045260246000fd5b600067ffffffffffffffff8084111561229957612299612268565b604051601f8501601f19908116603f011681019082821181831017156122c1576122c1612268565b816040528093508581528686860111156122da57600080fd5b858560208301376000602087830101525050509392505050565b60006020828403121561230657600080fd5b813567ffffffffffffffff81111561231d57600080fd5b8201601f8101841361232e57600080fd5b611de58482356020840161227e565b60006020828403121561234f57600080fd5b611a1582612222565b60008060006060848603121561236d57600080fd5b61237684612222565b925061238460208501612222565b9150604084013590509250925092565b600080600080606085870312156123aa57600080fd5b6123b385612222565b935060208501359250604085013567ffffffffffffffff808211156123d757600080fd5b818701915087601f8301126123eb57600080fd5b8135818111156123fa57600080fd5b8860208260051b850101111561240f57600080fd5b95989497505060200194505050565b8035801515811461223957600080fd5b6000806040838503121561244157600080fd5b61244a83612222565b91506124586020840161241e565b90509250929050565b6000806000806080858703121561247757600080fd5b61248085612222565b935061248e60208601612222565b925060408501359150606085013567ffffffffffffffff8111156124b157600080fd5b8501601f810187136124c257600080fd5b6124d18782356020840161227e565b91505092959194509250565b6000602082840312156124ef57600080fd5b611a158261241e565b6000806040838503121561250b57600080fd5b61251483612222565b915061245860208401612222565b6000806040838503121561253557600080fd5b8235915061245860208401612222565b600181811c9082168061255957607f821691505b6020821081141561257a57634e487b7160e01b600052602260045260246000fd5b50919050565b6020808252818101527f4f776e61626c653a2063616c6c6572206973206e6f7420746865206f776e6572604082015260600190565b634e487b7160e01b600052601160045260246000fd5b600082198211156125de576125de6125b5565b500190565b6000828210156125f5576125f56125b5565b500390565b6000816000190483118215151615612614576126146125b5565b500290565b60008451602061262c8285838a0161219e565b85519184019161263f8184848a0161219e565b8554920191600090600181811c908083168061265c57607f831692505b85831081141561267a57634e487b7160e01b85526022600452602485fd5b80801561268e576001811461269f576126cc565b60ff198516885283880195506126cc565b60008b81526020902060005b858110156126c45781548a8201529084019088016126ab565b505083880195505b50939b9a5050505050505050505050565b6001600160a01b0385811682528416602082015260408101839052608060608201819052600090612710908301846121ca565b9695505050505050565b60006020828403121561272c57600080fd5b8151611a158161216b565b600060001982141561274b5761274b6125b5565b5060010190565b634e487b7160e01b600052601260045260246000fd5b60008261277757612777612752565b500490565b60008261278b5761278b612752565b500690565b634e487b7160e01b600052603260045260246000fdfea264697066735822122075256632811f17047c69effe4799c10c00e6a1388c06633c8bf0cff36938cb6464736f6c634300080900334f776e61626c653a2063616c6c6572206973206e6f7420746865206f776e6572",
  "linkReferences": {},
  "deployedLinkReferences": {}
}